{
  "_format": "hh-sol-artifact-1",
  "contractName": "OnePieceMint",
  "sourceName": "contracts/OnePieceMint.sol",
  "abi": [
    {
      "inputs": [],
      "stateMutability": "nonpayable",
      "type": "constructor"
    },
    {
      "anonymous": false,
      "inputs": [
        {
          "indexed": true,
          "internalType": "address",
          "name": "owner",
          "type": "address"
        },
        {
          "indexed": true,
          "internalType": "address",
          "name": "approved",
          "type": "address"
        },
        {
          "indexed": true,
          "internalType": "uint256",
          "name": "tokenId",
          "type": "uint256"
        }
      ],
      "name": "Approval",
      "type": "event"
    },
    {
      "anonymous": false,
      "inputs": [
        {
          "indexed": true,
          "internalType": "address",
          "name": "owner",
          "type": "address"
        },
        {
          "indexed": true,
          "internalType": "address",
          "name": "operator",
          "type": "address"
        },
        {
          "indexed": false,
          "internalType": "bool",
          "name": "approved",
          "type": "bool"
        }
      ],
      "name": "ApprovalForAll",
      "type": "event"
    },
    {
      "anonymous": false,
      "inputs": [
        {
          "indexed": false,
          "internalType": "uint256",
          "name": "_fromTokenId",
          "type": "uint256"
        },
        {
          "indexed": false,
          "internalType": "uint256",
          "name": "_toTokenId",
          "type": "uint256"
        }
      ],
      "name": "BatchMetadataUpdate",
      "type": "event"
    },
    {
      "anonymous": false,
      "inputs": [
        {
          "indexed": false,
          "internalType": "uint256",
          "name": "characterId",
          "type": "uint256"
        }
      ],
      "name": "CharacterTraitDetermined",
      "type": "event"
    },
    {
      "anonymous": false,
      "inputs": [
        {
          "indexed": false,
          "internalType": "uint256",
          "name": "_tokenId",
          "type": "uint256"
        }
      ],
      "name": "MetadataUpdate",
      "type": "event"
    },
    {
      "anonymous": false,
      "inputs": [
        {
          "indexed": false,
          "internalType": "uint256",
          "name": "characterId",
          "type": "uint256"
        },
        {
          "indexed": false,
          "internalType": "address",
          "name": "minter",
          "type": "address"
        }
      ],
      "name": "NftMinted",
      "type": "event"
    },
    {
      "anonymous": false,
      "inputs": [
        {
          "indexed": false,
          "internalType": "address",
          "name": "requester",
          "type": "address"
        }
      ],
      "name": "NftRequested",
      "type": "event"
    },
    {
      "anonymous": false,
      "inputs": [
        {
          "indexed": true,
          "internalType": "address",
          "name": "previousOwner",
          "type": "address"
        },
        {
          "indexed": true,
          "internalType": "address",
          "name": "newOwner",
          "type": "address"
        }
      ],
      "name": "OwnershipTransferred",
      "type": "event"
    },
    {
      "anonymous": false,
      "inputs": [
        {
          "indexed": true,
          "internalType": "address",
          "name": "from",
          "type": "address"
        },
        {
          "indexed": true,
          "internalType": "address",
          "name": "to",
          "type": "address"
        },
        {
          "indexed": true,
          "internalType": "uint256",
          "name": "tokenId",
          "type": "uint256"
        }
      ],
      "name": "Transfer",
      "type": "event"
    },
    {
      "inputs": [
        {
          "internalType": "address",
          "name": "to",
          "type": "address"
        },
        {
          "internalType": "uint256",
          "name": "tokenId",
          "type": "uint256"
        }
      ],
      "name": "approve",
      "outputs": [],
      "stateMutability": "nonpayable",
      "type": "function"
    },
    {
      "inputs": [
        {
          "internalType": "address",
          "name": "owner",
          "type": "address"
        }
      ],
      "name": "balanceOf",
      "outputs": [
        {
          "internalType": "uint256",
          "name": "",
          "type": "uint256"
        }
      ],
      "stateMutability": "view",
      "type": "function"
    },
    {
      "inputs": [
        {
          "internalType": "uint256",
          "name": "tokenId",
          "type": "uint256"
        }
      ],
      "name": "getApproved",
      "outputs": [
        {
          "internalType": "address",
          "name": "",
          "type": "address"
        }
      ],
      "stateMutability": "view",
      "type": "function"
    },
    {
      "inputs": [
        {
          "internalType": "address",
          "name": "",
          "type": "address"
        }
      ],
      "name": "hasMinted",
      "outputs": [
        {
          "internalType": "bool",
          "name": "",
          "type": "bool"
        }
      ],
      "stateMutability": "view",
      "type": "function"
    },
    {
      "inputs": [
        {
          "internalType": "address",
          "name": "owner",
          "type": "address"
        },
        {
          "internalType": "address",
          "name": "operator",
          "type": "address"
        }
      ],
      "name": "isApprovedForAll",
      "outputs": [
        {
          "internalType": "bool",
          "name": "",
          "type": "bool"
        }
      ],
      "stateMutability": "view",
      "type": "function"
    },
    {
      "inputs": [],
      "name": "name",
      "outputs": [
        {
          "internalType": "string",
          "name": "",
          "type": "string"
        }
      ],
      "stateMutability": "view",
      "type": "function"
    },
    {
      "inputs": [],
      "name": "owner",
      "outputs": [
        {
          "internalType": "address",
          "name": "",
          "type": "address"
        }
      ],
      "stateMutability": "view",
      "type": "function"
    },
    {
      "inputs": [
        {
          "internalType": "uint256",
          "name": "tokenId",
          "type": "uint256"
        }
      ],
      "name": "ownerOf",
      "outputs": [
        {
          "internalType": "address",
          "name": "",
          "type": "address"
        }
      ],
      "stateMutability": "view",
      "type": "function"
    },
    {
      "inputs": [],
      "name": "renounceOwnership",
      "outputs": [],
      "stateMutability": "nonpayable",
      "type": "function"
    },
    {
      "inputs": [
        {
          "internalType": "uint256[5]",
          "name": "answers",
          "type": "uint256[5]"
        }
      ],
      "name": "requestNFT",
      "outputs": [],
      "stateMutability": "nonpayable",
      "type": "function"
    },
    {
      "inputs": [
        {
          "internalType": "address",
          "name": "",
          "type": "address"
        }
      ],
      "name": "s_addressToCharacter",
      "outputs": [
        {
          "internalType": "uint256",
          "name": "",
          "type": "uint256"
        }
      ],
      "stateMutability": "view",
      "type": "function"
    },
    {
      "inputs": [
        {
          "internalType": "address",
          "name": "from",
          "type": "address"
        },
        {
          "internalType": "address",
          "name": "to",
          "type": "address"
        },
        {
          "internalType": "uint256",
          "name": "tokenId",
          "type": "uint256"
        }
      ],
      "name": "safeTransferFrom",
      "outputs": [],
      "stateMutability": "nonpayable",
      "type": "function"
    },
    {
      "inputs": [
        {
          "internalType": "address",
          "name": "from",
          "type": "address"
        },
        {
          "internalType": "address",
          "name": "to",
          "type": "address"
        },
        {
          "internalType": "uint256",
          "name": "tokenId",
          "type": "uint256"
        },
        {
          "internalType": "bytes",
          "name": "data",
          "type": "bytes"
        }
      ],
      "name": "safeTransferFrom",
      "outputs": [],
      "stateMutability": "nonpayable",
      "type": "function"
    },
    {
      "inputs": [
        {
          "internalType": "address",
          "name": "operator",
          "type": "address"
        },
        {
          "internalType": "bool",
          "name": "approved",
          "type": "bool"
        }
      ],
      "name": "setApprovalForAll",
      "outputs": [],
      "stateMutability": "nonpayable",
      "type": "function"
    },
    {
      "inputs": [
        {
          "internalType": "bytes4",
          "name": "interfaceId",
          "type": "bytes4"
        }
      ],
      "name": "supportsInterface",
      "outputs": [
        {
          "internalType": "bool",
          "name": "",
          "type": "bool"
        }
      ],
      "stateMutability": "view",
      "type": "function"
    },
    {
      "inputs": [],
      "name": "symbol",
      "outputs": [
        {
          "internalType": "string",
          "name": "",
          "type": "string"
        }
      ],
      "stateMutability": "view",
      "type": "function"
    },
    {
      "inputs": [
        {
          "internalType": "uint256",
          "name": "tokenId",
          "type": "uint256"
        }
      ],
      "name": "tokenURI",
      "outputs": [
        {
          "internalType": "string",
          "name": "",
          "type": "string"
        }
      ],
      "stateMutability": "view",
      "type": "function"
    },
    {
      "inputs": [
        {
          "internalType": "address",
          "name": "from",
          "type": "address"
        },
        {
          "internalType": "address",
          "name": "to",
          "type": "address"
        },
        {
          "internalType": "uint256",
          "name": "tokenId",
          "type": "uint256"
        }
      ],
      "name": "transferFrom",
      "outputs": [],
      "stateMutability": "nonpayable",
      "type": "function"
    },
    {
      "inputs": [
        {
          "internalType": "address",
          "name": "newOwner",
          "type": "address"
        }
      ],
      "name": "transferOwnership",
      "outputs": [],
      "stateMutability": "nonpayable",
      "type": "function"
    },
    {
      "inputs": [
        {
          "internalType": "address",
          "name": "",
          "type": "address"
        }
      ],
      "name": "userTokenID",
      "outputs": [
        {
          "internalType": "uint256",
          "name": "",
          "type": "uint256"
        }
      ],
      "stateMutability": "view",
      "type": "function"
    }
  ],
  "bytecode": "0x6101c06040526062610120818152608091829190620024586101403981526020016040518060a0016040528060628152602001620023946062913981526020016040518060a00160405280606281526020016200251c6062913981526020016040518060a0016040528060628152602001620023f66062913981526020016040518060a0016040528060628152602001620024ba606291399052620000a990600990600562000192565b50348015620000b757600080fd5b506040518060400160405280600c81526020016b13db99541a5958d94813919560a21b8152506040518060400160405280600381526020016227a82760e91b81525081600090816200010a91906200030e565b5060016200011982826200030e565b50505062000136620001306200013c60201b60201c565b62000140565b620003da565b3390565b600680546001600160a01b038381166001600160a01b0319831681179093556040519116919082907f8be0079c531659141344cd1fd0a4f28419497f9722a3daafe3b4186f6b6457e090600090a35050565b828054828255906000526020600020908101928215620001dd579160200282015b82811115620001dd5782518290620001cc90826200030e565b5091602001919060010190620001b3565b50620001eb929150620001ef565b5090565b80821115620001eb57600062000206828262000210565b50600101620001ef565b5080546200021e906200027f565b6000825580601f106200022f575050565b601f0160209004906000526020600020908101906200024f919062000252565b50565b5b80821115620001eb576000815560010162000253565b634e487b7160e01b600052604160045260246000fd5b600181811c908216806200029457607f821691505b602082108103620002b557634e487b7160e01b600052602260045260246000fd5b50919050565b601f8211156200030957600081815260208120601f850160051c81016020861015620002e45750805b601f850160051c820191505b818110156200030557828155600101620002f0565b5050505b505050565b81516001600160401b038111156200032a576200032a62000269565b62000342816200033b84546200027f565b84620002bb565b602080601f8311600181146200037a5760008415620003615750858301515b600019600386901b1c1916600185901b17855562000305565b600085815260208120601f198616915b82811015620003ab578886015182559484019460019091019084016200038a565b5085821015620003ca5787850151600019600388901b60f8161c191681555b5050505050600190811b01905550565b611faa80620003ea6000396000f3fe608060405234801561001057600080fd5b506004361061016c5760003560e01c8063715018a6116100cd578063b88c947511610081578063c87b56dd11610066578063c87b56dd14610305578063e985e9c514610318578063f2fde38b1461035457600080fd5b8063b88c9475146102d2578063b88d4fde146102f257600080fd5b806395d89b41116100b257806395d89b41146102a4578063a22cb465146102ac578063a362fc8f146102bf57600080fd5b8063715018a61461028b5780638da5cb5b1461029357600080fd5b806338e21cce116101245780636352211e116101095780636352211e14610237578063683305d41461024a57806370a082311461027857600080fd5b806338e21cce1461020157806342842e0e1461022457600080fd5b8063081812fc11610155578063081812fc146101ae578063095ea7b3146101d957806323b872dd146101ee57600080fd5b806301ffc9a71461017157806306fdde0314610199575b600080fd5b61018461017f366004611a00565b610367565b60405190151581526020015b60405180910390f35b6101a1610378565b6040516101909190611a6d565b6101c16101bc366004611a80565b61040a565b6040516001600160a01b039091168152602001610190565b6101ec6101e7366004611ab5565b610431565b005b6101ec6101fc366004611adf565b610585565b61018461020f366004611b1b565b600b6020526000908152604090205460ff1681565b6101ec610232366004611adf565b6105fc565b6101c1610245366004611a80565b610617565b61026a610258366004611b1b565b600c6020526000908152604090205481565b604051908152602001610190565b61026a610286366004611b1b565b61067c565b6101ec610716565b6006546001600160a01b03166101c1565b6101a161072a565b6101ec6102ba366004611b36565b610739565b6101ec6102cd366004611bb9565b610748565b61026a6102e0366004611b1b565b600d6020526000908152604090205481565b6101ec610300366004611c37565b610839565b6101a1610313366004611a80565b6108b7565b610184610326366004611cf7565b6001600160a01b03918216600090815260056020908152604080832093909416825291909152205460ff1690565b6101ec610362366004611b1b565b6108c2565b600061037282610952565b92915050565b60606000805461038790611d2a565b80601f01602080910402602001604051908101604052809291908181526020018280546103b390611d2a565b80156104005780601f106103d557610100808354040283529160200191610400565b820191906000526020600020905b8154815290600101906020018083116103e357829003601f168201915b5050505050905090565b600061041582610990565b506000908152600460205260409020546001600160a01b031690565b600061043c82610617565b9050806001600160a01b0316836001600160a01b0316036104ca5760405162461bcd60e51b815260206004820152602160248201527f4552433732313a20617070726f76616c20746f2063757272656e74206f776e6560448201527f720000000000000000000000000000000000000000000000000000000000000060648201526084015b60405180910390fd5b336001600160a01b038216148061050457506001600160a01b038116600090815260056020908152604080832033845290915290205460ff165b6105765760405162461bcd60e51b815260206004820152603d60248201527f4552433732313a20617070726f76652063616c6c6572206973206e6f7420746f60448201527f6b656e206f776e6572206f7220617070726f76656420666f7220616c6c00000060648201526084016104c1565b61058083836109f4565b505050565b61058f3382610a6f565b6105f15760405162461bcd60e51b815260206004820152602d60248201527f4552433732313a2063616c6c6572206973206e6f7420746f6b656e206f776e6560448201526c1c881bdc88185c1c1c9bdd9959609a1b60648201526084016104c1565b610580838383610aee565b61058083838360405180602001604052806000815250610839565b6000818152600260205260408120546001600160a01b0316806103725760405162461bcd60e51b815260206004820152601860248201527f4552433732313a20696e76616c696420746f6b656e204944000000000000000060448201526064016104c1565b60006001600160a01b0382166106fa5760405162461bcd60e51b815260206004820152602960248201527f4552433732313a2061646472657373207a65726f206973206e6f74206120766160448201527f6c6964206f776e6572000000000000000000000000000000000000000000000060648201526084016104c1565b506001600160a01b031660009081526003602052604090205490565b61071e610d01565b6107286000610d5b565b565b60606001805461038790611d2a565b610744338383610dba565b5050565b61075181610e88565b336000908152600a60205260408120919091556008546107b990604080516020808201939093524281830152446060808301919091526bffffffffffffffffffffffff193390911b166080820152815160748183030181526094909101909152805191012090565b905060006107c8600583611d64565b336000908152600a6020526040812054919250906005906107ea908490611d9c565b6107f49190611d64565b90506108003382610f18565b6040513381527fa2d573a5ffbecd36ba5b0d27aacc103803ffd389e0828d722dee87bf357110c19060200160405180910390a150505050565b6108433383610a6f565b6108a55760405162461bcd60e51b815260206004820152602d60248201527f4552433732313a2063616c6c6572206973206e6f7420746f6b656e206f776e6560448201526c1c881bdc88185c1c1c9bdd9959609a1b60648201526084016104c1565b6108b184848484611106565b50505050565b606061037282611184565b6108ca610d01565b6001600160a01b0381166109465760405162461bcd60e51b815260206004820152602660248201527f4f776e61626c653a206e6577206f776e657220697320746865207a65726f206160448201527f646472657373000000000000000000000000000000000000000000000000000060648201526084016104c1565b61094f81610d5b565b50565b60006001600160e01b031982167f4906490600000000000000000000000000000000000000000000000000000000148061037257506103728261128c565b6000818152600260205260409020546001600160a01b031661094f5760405162461bcd60e51b815260206004820152601860248201527f4552433732313a20696e76616c696420746f6b656e204944000000000000000060448201526064016104c1565b6000818152600460205260409020805473ffffffffffffffffffffffffffffffffffffffff19166001600160a01b0384169081179091558190610a3682610617565b6001600160a01b03167f8c5be1e5ebec7d5bd14f71427d1e84f3dd0314c0f7b2291e5b200ac8c7c3b92560405160405180910390a45050565b600080610a7b83610617565b9050806001600160a01b0316846001600160a01b03161480610ac257506001600160a01b0380821660009081526005602090815260408083209388168352929052205460ff165b80610ae65750836001600160a01b0316610adb8461040a565b6001600160a01b0316145b949350505050565b826001600160a01b0316610b0182610617565b6001600160a01b031614610b655760405162461bcd60e51b815260206004820152602560248201527f4552433732313a207472616e736665722066726f6d20696e636f72726563742060448201526437bbb732b960d91b60648201526084016104c1565b6001600160a01b038216610be05760405162461bcd60e51b8152602060048201526024808201527f4552433732313a207472616e7366657220746f20746865207a65726f2061646460448201527f726573730000000000000000000000000000000000000000000000000000000060648201526084016104c1565b610bed8383836001611327565b826001600160a01b0316610c0082610617565b6001600160a01b031614610c645760405162461bcd60e51b815260206004820152602560248201527f4552433732313a207472616e736665722066726f6d20696e636f72726563742060448201526437bbb732b960d91b60648201526084016104c1565b6000818152600460209081526040808320805473ffffffffffffffffffffffffffffffffffffffff199081169091556001600160a01b0387811680865260038552838620805460001901905590871680865283862080546001019055868652600290945282852080549092168417909155905184937fddf252ad1be2c89b69c2b068fc378daa952ba7f163c4a11628f55a4df523b3ef91a4505050565b6006546001600160a01b031633146107285760405162461bcd60e51b815260206004820181905260248201527f4f776e61626c653a2063616c6c6572206973206e6f7420746865206f776e657260448201526064016104c1565b600680546001600160a01b0383811673ffffffffffffffffffffffffffffffffffffffff19831681179093556040519116919082907f8be0079c531659141344cd1fd0a4f28419497f9722a3daafe3b4186f6b6457e090600090a35050565b816001600160a01b0316836001600160a01b031603610e1b5760405162461bcd60e51b815260206004820152601960248201527f4552433732313a20617070726f766520746f2063616c6c65720000000000000060448201526064016104c1565b6001600160a01b03838116600081815260056020908152604080832094871680845294825291829020805460ff191686151590811790915591519182527f17307eab39ab6107e8899845ad3d59bd9653f200f220920489ca2b5937696c31910160405180910390a3505050565b600080805b6005811015610ecb57838160058110610ea857610ea8611daf565b6020020151610eb79083611d9c565b915080610ec381611dc5565b915050610e8d565b50610ed7600582611d64565b90507f634fccbf98fc875142862789978822a92147ac902bd85a53dcf58214f3ae33dd81604051610f0a91815260200190565b60405180910390a192915050565b6001600160a01b0382166000908152600b602052604090205460ff1615610fa75760405162461bcd60e51b815260206004820152602660248201527f596f75206861766520616c7265616479206d696e74656420796f757220686f7560448201527f7365204e4654000000000000000000000000000000000000000000000000000060648201526084016104c1565b600854610fb48382611390565b6110638160098481548110610fcb57610fcb611daf565b906000526020600020018054610fe090611d2a565b80601f016020809104026020016040519081016040528092919081815260200182805461100c90611d2a565b80156110595780601f1061102e57610100808354040283529160200191611059565b820191906000526020600020905b81548152906001019060200180831161103c57829003601f168201915b50505050506113aa565b6001600160a01b0383166000908152600c60209081526040808320859055600d9091528120829055600880546001929061109e908490611d9c565b90915550506001600160a01b0383166000818152600b6020908152604091829020805460ff191660011790558151858152908101929092527f769eff512f395b679667e0062a0e31dad5d22dbc7e6b87f16c3de7e85e663460910160405180910390a1505050565b611111848484610aee565b61111d84848484611484565b6108b15760405162461bcd60e51b815260206004820152603260248201527f4552433732313a207472616e7366657220746f206e6f6e20455243373231526560448201527131b2b4bb32b91034b6b83632b6b2b73a32b960711b60648201526084016104c1565b606061118f82610990565b600082815260076020526040812080546111a890611d2a565b80601f01602080910402602001604051908101604052809291908181526020018280546111d490611d2a565b80156112215780601f106111f657610100808354040283529160200191611221565b820191906000526020600020905b81548152906001019060200180831161120457829003601f168201915b50505050509050600061123f60408051602081019091526000815290565b90508051600003611251575092915050565b81511561128357808260405160200161126b929190611dde565b60405160208183030381529060405292505050919050565b610ae6846115d0565b60006001600160e01b031982167f80ac58cd0000000000000000000000000000000000000000000000000000000014806112ef57506001600160e01b031982167f5b5e139f00000000000000000000000000000000000000000000000000000000145b8061037257507f01ffc9a7000000000000000000000000000000000000000000000000000000006001600160e01b0319831614610372565b6001600160a01b038416158061134457506001600160a01b038316155b6108b15760405162461bcd60e51b815260206004820152601860248201527f457272212054686973206973206e6f7420616c6c6f776564000000000000000060448201526064016104c1565b610744828260405180602001604052806000815250611644565b6000828152600260205260409020546001600160a01b03166114345760405162461bcd60e51b815260206004820152602e60248201527f45524337323155524953746f726167653a2055524920736574206f66206e6f6e60448201527f6578697374656e7420746f6b656e00000000000000000000000000000000000060648201526084016104c1565b600082815260076020526040902061144c8282611e5b565b506040518281527ff8e1a15aba9398e019f0b49df1a4fde98ee17ae345cb5f6b5e2c27f5033e8ce79060200160405180910390a15050565b60006001600160a01b0384163b156115c557604051630a85bd0160e11b81526001600160a01b0385169063150b7a02906114c8903390899088908890600401611f1b565b6020604051808303816000875af1925050508015611503575060408051601f3d908101601f1916820190925261150091810190611f57565b60015b6115ab573d808015611531576040519150601f19603f3d011682016040523d82523d6000602084013e611536565b606091505b5080516000036115a35760405162461bcd60e51b815260206004820152603260248201527f4552433732313a207472616e7366657220746f206e6f6e20455243373231526560448201527131b2b4bb32b91034b6b83632b6b2b73a32b960711b60648201526084016104c1565b805181602001fd5b6001600160e01b031916630a85bd0160e11b149050610ae6565b506001949350505050565b60606115db82610990565b60006115f260408051602081019091526000815290565b90506000815111611612576040518060200160405280600081525061163d565b8061161c846116c2565b60405160200161162d929190611dde565b6040516020818303038152906040525b9392505050565b61164e8383611762565b61165b6000848484611484565b6105805760405162461bcd60e51b815260206004820152603260248201527f4552433732313a207472616e7366657220746f206e6f6e20455243373231526560448201527131b2b4bb32b91034b6b83632b6b2b73a32b960711b60648201526084016104c1565b606060006116cf83611908565b600101905060008167ffffffffffffffff8111156116ef576116ef611b72565b6040519080825280601f01601f191660200182016040528015611719576020820181803683370190505b5090508181016020015b600019017f3031323334353637383961626364656600000000000000000000000000000000600a86061a8153600a850494508461172357509392505050565b6001600160a01b0382166117b85760405162461bcd60e51b815260206004820181905260248201527f4552433732313a206d696e7420746f20746865207a65726f206164647265737360448201526064016104c1565b6000818152600260205260409020546001600160a01b03161561181d5760405162461bcd60e51b815260206004820152601c60248201527f4552433732313a20746f6b656e20616c7265616479206d696e7465640000000060448201526064016104c1565b61182b600083836001611327565b6000818152600260205260409020546001600160a01b0316156118905760405162461bcd60e51b815260206004820152601c60248201527f4552433732313a20746f6b656e20616c7265616479206d696e7465640000000060448201526064016104c1565b6001600160a01b0382166000818152600360209081526040808320805460010190558483526002909152808220805473ffffffffffffffffffffffffffffffffffffffff19168417905551839291907fddf252ad1be2c89b69c2b068fc378daa952ba7f163c4a11628f55a4df523b3ef908290a45050565b6000807a184f03e93ff9f4daa797ed6e38ed64bf6a1f0100000000000000008310611951577a184f03e93ff9f4daa797ed6e38ed64bf6a1f010000000000000000830492506040015b6d04ee2d6d415b85acef8100000000831061197d576d04ee2d6d415b85acef8100000000830492506020015b662386f26fc10000831061199b57662386f26fc10000830492506010015b6305f5e10083106119b3576305f5e100830492506008015b61271083106119c757612710830492506004015b606483106119d9576064830492506002015b600a83106103725760010192915050565b6001600160e01b03198116811461094f57600080fd5b600060208284031215611a1257600080fd5b813561163d816119ea565b60005b83811015611a38578181015183820152602001611a20565b50506000910152565b60008151808452611a59816020860160208601611a1d565b601f01601f19169290920160200192915050565b60208152600061163d6020830184611a41565b600060208284031215611a9257600080fd5b5035919050565b80356001600160a01b0381168114611ab057600080fd5b919050565b60008060408385031215611ac857600080fd5b611ad183611a99565b946020939093013593505050565b600080600060608486031215611af457600080fd5b611afd84611a99565b9250611b0b60208501611a99565b9150604084013590509250925092565b600060208284031215611b2d57600080fd5b61163d82611a99565b60008060408385031215611b4957600080fd5b611b5283611a99565b915060208301358015158114611b6757600080fd5b809150509250929050565b634e487b7160e01b600052604160045260246000fd5b604051601f8201601f1916810167ffffffffffffffff81118282101715611bb157611bb1611b72565b604052919050565b600060a08284031215611bcb57600080fd5b82601f830112611bda57600080fd5b60405160a0810181811067ffffffffffffffff82111715611bfd57611bfd611b72565b6040528060a0840185811115611c1257600080fd5b845b81811015611c2c578035835260209283019201611c14565b509195945050505050565b60008060008060808587031215611c4d57600080fd5b611c5685611a99565b93506020611c65818701611a99565b935060408601359250606086013567ffffffffffffffff80821115611c8957600080fd5b818801915088601f830112611c9d57600080fd5b813581811115611caf57611caf611b72565b611cc1601f8201601f19168501611b88565b91508082528984828501011115611cd757600080fd5b808484018584013760008482840101525080935050505092959194509250565b60008060408385031215611d0a57600080fd5b611d1383611a99565b9150611d2160208401611a99565b90509250929050565b600181811c90821680611d3e57607f821691505b602082108103611d5e57634e487b7160e01b600052602260045260246000fd5b50919050565b600082611d8157634e487b7160e01b600052601260045260246000fd5b500690565b634e487b7160e01b600052601160045260246000fd5b8082018082111561037257610372611d86565b634e487b7160e01b600052603260045260246000fd5b600060018201611dd757611dd7611d86565b5060010190565b60008351611df0818460208801611a1d565b835190830190611e04818360208801611a1d565b01949350505050565b601f82111561058057600081815260208120601f850160051c81016020861015611e345750805b601f850160051c820191505b81811015611e5357828155600101611e40565b505050505050565b815167ffffffffffffffff811115611e7557611e75611b72565b611e8981611e838454611d2a565b84611e0d565b602080601f831160018114611ebe5760008415611ea65750858301515b600019600386901b1c1916600185901b178555611e53565b600085815260208120601f198616915b82811015611eed57888601518255948401946001909101908401611ece565b5085821015611f0b5787850151600019600388901b60f8161c191681555b5050505050600190811b01905550565b60006001600160a01b03808716835280861660208401525083604083015260806060830152611f4d6080830184611a41565b9695505050505050565b600060208284031215611f6957600080fd5b815161163d816119ea56fea2646970667358221220c3af8e3cd573eabc49ce9399720923a5f4a5246c6d628c351b82cbf1946e344d64736f6c6343000814003368747470733a2f2f736361726c65742d6c6976652d696775616e612d3735392e6d7970696e6174612e636c6f75642f697066732f516d50486146743535506569646743755865326b616552596d4c61425550453159374b67347444797a61705a487968747470733a2f2f736361726c65742d6c6976652d696775616e612d3735392e6d7970696e6174612e636c6f75642f697066732f516d536e4e586f35687872466e706279426562376a59376a686b6d3565796b6e6143587472386d756b333141484b68747470733a2f2f736361726c65742d6c6976652d696775616e612d3735392e6d7970696e6174612e636c6f75642f697066732f516d4e7034734866346363715070714d4255435347314370467746523444366b674865737863316d4c733735616d68747470733a2f2f736361726c65742d6c6976652d696775616e612d3735392e6d7970696e6174612e636c6f75642f697066732f516d61726b6b6744754255636e716b736174507a5538754e53346f364c54624574754b343350374a797468394e4868747470733a2f2f736361726c65742d6c6976652d696775616e612d3735392e6d7970696e6174612e636c6f75642f697066732f516d50397043394a7555704b636e6a556b384742584557565447764b3346546a584c393151334d4a327268413136",
  "linkReferences": {},
  "deployedLinkReferences": {}
}